{
  "_format": "hh-sol-artifact-1",
  "contractName": "DegenToken",
  "sourceName": "contracts/DegenToken.sol",
  "abi": [
    {
      "inputs": [],
      "stateMutability": "nonpayable",
      "type": "constructor"
    },
    {
      "anonymous": false,
      "inputs": [
        {
          "indexed": true,
          "internalType": "address",
          "name": "owner",
          "type": "address"
        },
        {
          "indexed": true,
          "internalType": "address",
          "name": "spender",
          "type": "address"
        },
        {
          "indexed": false,
          "internalType": "uint256",
          "name": "value",
          "type": "uint256"
        }
      ],
      "name": "Approval",
      "type": "event"
    },
    {
      "anonymous": false,
      "inputs": [
        {
          "indexed": true,
          "internalType": "address",
          "name": "previousOwner",
          "type": "address"
        },
        {
          "indexed": true,
          "internalType": "address",
          "name": "newOwner",
          "type": "address"
        }
      ],
      "name": "OwnershipTransferred",
      "type": "event"
    },
    {
      "anonymous": false,
      "inputs": [
        {
          "indexed": true,
          "internalType": "address",
          "name": "from",
          "type": "address"
        },
        {
          "indexed": true,
          "internalType": "address",
          "name": "to",
          "type": "address"
        },
        {
          "indexed": false,
          "internalType": "uint256",
          "name": "value",
          "type": "uint256"
        }
      ],
      "name": "Transfer",
      "type": "event"
    },
    {
      "inputs": [
        {
          "internalType": "uint256",
          "name": "",
          "type": "uint256"
        }
      ],
      "name": "NFTDetails",
      "outputs": [
        {
          "internalType": "uint256",
          "name": "id",
          "type": "uint256"
        },
        {
          "internalType": "string",
          "name": "name",
          "type": "string"
        },
        {
          "internalType": "uint256",
          "name": "amount",
          "type": "uint256"
        }
      ],
      "stateMutability": "view",
      "type": "function"
    },
    {
      "inputs": [
        {
          "internalType": "string",
          "name": "name",
          "type": "string"
        },
        {
          "internalType": "uint256",
          "name": "amount",
          "type": "uint256"
        }
      ],
      "name": "addNFT",
      "outputs": [],
      "stateMutability": "nonpayable",
      "type": "function"
    },
    {
      "inputs": [
        {
          "internalType": "address",
          "name": "owner",
          "type": "address"
        },
        {
          "internalType": "address",
          "name": "spender",
          "type": "address"
        }
      ],
      "name": "allowance",
      "outputs": [
        {
          "internalType": "uint256",
          "name": "",
          "type": "uint256"
        }
      ],
      "stateMutability": "view",
      "type": "function"
    },
    {
      "inputs": [
        {
          "internalType": "address",
          "name": "spender",
          "type": "address"
        },
        {
          "internalType": "uint256",
          "name": "amount",
          "type": "uint256"
        }
      ],
      "name": "approve",
      "outputs": [
        {
          "internalType": "bool",
          "name": "",
          "type": "bool"
        }
      ],
      "stateMutability": "nonpayable",
      "type": "function"
    },
    {
      "inputs": [
        {
          "internalType": "address",
          "name": "account",
          "type": "address"
        }
      ],
      "name": "balanceOf",
      "outputs": [
        {
          "internalType": "uint256",
          "name": "",
          "type": "uint256"
        }
      ],
      "stateMutability": "view",
      "type": "function"
    },
    {
      "inputs": [
        {
          "internalType": "uint256",
          "name": "amount",
          "type": "uint256"
        }
      ],
      "name": "burn",
      "outputs": [],
      "stateMutability": "nonpayable",
      "type": "function"
    },
    {
      "inputs": [
        {
          "internalType": "address",
          "name": "account",
          "type": "address"
        },
        {
          "internalType": "uint256",
          "name": "amount",
          "type": "uint256"
        }
      ],
      "name": "burnFrom",
      "outputs": [],
      "stateMutability": "nonpayable",
      "type": "function"
    },
    {
      "inputs": [
        {
          "internalType": "uint256",
          "name": "amount",
          "type": "uint256"
        }
      ],
      "name": "burnTokens",
      "outputs": [],
      "stateMutability": "nonpayable",
      "type": "function"
    },
    {
      "inputs": [],
      "name": "checkBalance",
      "outputs": [
        {
          "internalType": "uint256",
          "name": "",
          "type": "uint256"
        }
      ],
      "stateMutability": "view",
      "type": "function"
    },
    {
      "inputs": [],
      "name": "decimals",
      "outputs": [
        {
          "internalType": "uint8",
          "name": "",
          "type": "uint8"
        }
      ],
      "stateMutability": "view",
      "type": "function"
    },
    {
      "inputs": [
        {
          "internalType": "address",
          "name": "spender",
          "type": "address"
        },
        {
          "internalType": "uint256",
          "name": "subtractedValue",
          "type": "uint256"
        }
      ],
      "name": "decreaseAllowance",
      "outputs": [
        {
          "internalType": "bool",
          "name": "",
          "type": "bool"
        }
      ],
      "stateMutability": "nonpayable",
      "type": "function"
    },
    {
      "inputs": [],
      "name": "gameStore",
      "outputs": [
        {
          "components": [
            {
              "internalType": "uint256",
              "name": "id",
              "type": "uint256"
            },
            {
              "internalType": "string",
              "name": "name",
              "type": "string"
            },
            {
              "internalType": "uint256",
              "name": "amount",
              "type": "uint256"
            }
          ],
          "internalType": "struct DegenToken.NFTStructure[]",
          "name": "",
          "type": "tuple[]"
        }
      ],
      "stateMutability": "view",
      "type": "function"
    },
    {
      "inputs": [
        {
          "internalType": "address",
          "name": "spender",
          "type": "address"
        },
        {
          "internalType": "uint256",
          "name": "addedValue",
          "type": "uint256"
        }
      ],
      "name": "increaseAllowance",
      "outputs": [
        {
          "internalType": "bool",
          "name": "",
          "type": "bool"
        }
      ],
      "stateMutability": "nonpayable",
      "type": "function"
    },
    {
      "inputs": [
        {
          "internalType": "address",
          "name": "to",
          "type": "address"
        },
        {
          "internalType": "uint256",
          "name": "amount",
          "type": "uint256"
        }
      ],
      "name": "mint",
      "outputs": [],
      "stateMutability": "nonpayable",
      "type": "function"
    },
    {
      "inputs": [],
      "name": "name",
      "outputs": [
        {
          "internalType": "string",
          "name": "",
          "type": "string"
        }
      ],
      "stateMutability": "view",
      "type": "function"
    },
    {
      "inputs": [],
      "name": "owner",
      "outputs": [
        {
          "internalType": "address",
          "name": "",
          "type": "address"
        }
      ],
      "stateMutability": "view",
      "type": "function"
    },
    {
      "inputs": [
        {
          "internalType": "uint256",
          "name": "choice",
          "type": "uint256"
        }
      ],
      "name": "redeemTokens",
      "outputs": [],
      "stateMutability": "nonpayable",
      "type": "function"
    },
    {
      "inputs": [],
      "name": "renounceOwnership",
      "outputs": [],
      "stateMutability": "nonpayable",
      "type": "function"
    },
    {
      "inputs": [],
      "name": "symbol",
      "outputs": [
        {
          "internalType": "string",
          "name": "",
          "type": "string"
        }
      ],
      "stateMutability": "view",
      "type": "function"
    },
    {
      "inputs": [],
      "name": "totalSupply",
      "outputs": [
        {
          "internalType": "uint256",
          "name": "",
          "type": "uint256"
        }
      ],
      "stateMutability": "view",
      "type": "function"
    },
    {
      "inputs": [
        {
          "internalType": "address",
          "name": "to",
          "type": "address"
        },
        {
          "internalType": "uint256",
          "name": "amount",
          "type": "uint256"
        }
      ],
      "name": "transfer",
      "outputs": [
        {
          "internalType": "bool",
          "name": "",
          "type": "bool"
        }
      ],
      "stateMutability": "nonpayable",
      "type": "function"
    },
    {
      "inputs": [
        {
          "internalType": "address",
          "name": "from",
          "type": "address"
        },
        {
          "internalType": "address",
          "name": "to",
          "type": "address"
        },
        {
          "internalType": "uint256",
          "name": "amount",
          "type": "uint256"
        }
      ],
      "name": "transferFrom",
      "outputs": [
        {
          "internalType": "bool",
          "name": "",
          "type": "bool"
        }
      ],
      "stateMutability": "nonpayable",
      "type": "function"
    },
    {
      "inputs": [
        {
          "internalType": "address",
          "name": "newOwner",
          "type": "address"
        }
      ],
      "name": "transferOwnership",
      "outputs": [],
      "stateMutability": "nonpayable",
      "type": "function"
    },
    {
      "inputs": [
        {
          "internalType": "address",
          "name": "_receiver",
          "type": "address"
        },
        {
          "internalType": "uint256",
          "name": "amount",
          "type": "uint256"
        }
      ],
      "name": "transferTokens",
      "outputs": [],
      "stateMutability": "nonpayable",
      "type": "function"
    }
  ],
  "bytecode": "0x60806040523480156200001157600080fd5b506040518060400160405280600581526020017f446567656e0000000000000000000000000000000000000000000000000000008152506040518060400160405280600381526020017f44474e000000000000000000000000000000000000000000000000000000000081525081600390816200008f919062000625565b508060049081620000a1919062000625565b505050620000c4620000b8620002dd60201b60201c565b620002e560201b60201c565b60006040518060600160405280600181526020016040518060400160405280601381526020017f50726f506c61796572204e46542076616c756500000000000000000000000000815250815260200160c8815250905060006040518060600160405280600281526020016040518060400160405280601081526020017f53757065724e696e6a612076616c75650000000000000000000000000000000081525081526020016064815250905060006040518060600160405280600381526020016040518060400160405280600e81526020017f446567656e4361702076616c75650000000000000000000000000000000000008152508152602001604b8152509050600683908060018154018082558091505060019003906000526020600020906003020160009091909190915060008201518160000155602082015181600101908162000213919062000625565b5060408201518160020155505060068290806001815401808255809150506001900390600052602060002090600302016000909190919091506000820151816000015560208201518160010190816200026d919062000625565b506040820151816002015550506006819080600181540180825580915050600190039060005260206000209060030201600090919091909150600082015181600001556020820151816001019081620002c7919062000625565b506040820151816002015550505050506200070c565b600033905090565b6000600560009054906101000a900473ffffffffffffffffffffffffffffffffffffffff16905081600560006101000a81548173ffffffffffffffffffffffffffffffffffffffff021916908373ffffffffffffffffffffffffffffffffffffffff1602179055508173ffffffffffffffffffffffffffffffffffffffff168173ffffffffffffffffffffffffffffffffffffffff167f8be0079c531659141344cd1fd0a4f28419497f9722a3daafe3b4186f6b6457e060405160405180910390a35050565b600081519050919050565b7f4e487b7100000000000000000000000000000000000000000000000000000000600052604160045260246000fd5b7f4e487b7100000000000000000000000000000000000000000000000000000000600052602260045260246000fd5b600060028204905060018216806200042d57607f821691505b602082108103620004435762000442620003e5565b5b50919050565b60008190508160005260206000209050919050565b60006020601f8301049050919050565b600082821b905092915050565b600060088302620004ad7fffffffffffffffffffffffffffffffffffffffffffffffffffffffffffffffff826200046e565b620004b986836200046e565b95508019841693508086168417925050509392505050565b6000819050919050565b6000819050919050565b60006200050662000500620004fa84620004d1565b620004db565b620004d1565b9050919050565b6000819050919050565b6200052283620004e5565b6200053a62000531826200050d565b8484546200047b565b825550505050565b600090565b6200055162000542565b6200055e81848462000517565b505050565b5b8181101562000586576200057a60008262000547565b60018101905062000564565b5050565b601f821115620005d5576200059f8162000449565b620005aa846200045e565b81016020851015620005ba578190505b620005d2620005c9856200045e565b83018262000563565b50505b505050565b600082821c905092915050565b6000620005fa60001984600802620005da565b1980831691505092915050565b6000620006158383620005e7565b9150826002028217905092915050565b6200063082620003ab565b67ffffffffffffffff8111156200064c576200064b620003b6565b5b62000658825462000414565b620006658282856200058a565b600060209050601f8311600181146200069d576000841562000688578287015190505b62000694858262000607565b86555062000704565b601f198416620006ad8662000449565b60005b82811015620006d757848901518255600182019150602085019450602081019050620006b0565b86831015620006f75784890151620006f3601f891682620005e7565b8355505b6001600288020188555050505b505050505050565b6128e5806200071c6000396000f3fe608060405234801561001057600080fd5b50600436106101585760003560e01c806379cc6790116100c3578063b1be64691161007c578063b1be6469146103db578063bec3fa17146103f9578063c71daccb14610415578063dd62ed3e14610433578063e386a7ca14610463578063f2fde38b1461047f57610158565b806379cc6790146103075780638da5cb5b1461032357806395d89b4114610341578063a457c2d71461035f578063a6e158f81461038f578063a9059cbb146103ab57610158565b806340c10f191161011557806340c10f191461024757806342966c68146102635780636bdb744e1461027f5780636d1b229d146102b157806370a08231146102cd578063715018a6146102fd57610158565b806306fdde031461015d578063095ea7b31461017b57806318160ddd146101ab57806323b872dd146101c9578063313ce567146101f95780633950935114610217575b600080fd5b61016561049b565b60405161017291906117b9565b60405180910390f35b61019560048036038101906101909190611883565b61052d565b6040516101a291906118de565b60405180910390f35b6101b3610550565b6040516101c09190611908565b60405180910390f35b6101e360048036038101906101de9190611923565b61055a565b6040516101f091906118de565b60405180910390f35b610201610589565b60405161020e9190611992565b60405180910390f35b610231600480360381019061022c9190611883565b610592565b60405161023e91906118de565b60405180910390f35b610261600480360381019061025c9190611883565b6105c9565b005b61027d600480360381019061027891906119ad565b6105df565b005b610299600480360381019061029491906119ad565b6105f3565b6040516102a8939291906119da565b60405180910390f35b6102cb60048036038101906102c691906119ad565b6106b5565b005b6102e760048036038101906102e29190611a18565b6106c2565b6040516102f49190611908565b60405180910390f35b61030561070a565b005b610321600480360381019061031c9190611883565b61071e565b005b61032b61073e565b6040516103389190611a54565b60405180910390f35b610349610768565b60405161035691906117b9565b60405180910390f35b61037960048036038101906103749190611883565b6107fa565b60405161038691906118de565b60405180910390f35b6103a960048036038101906103a491906119ad565b610871565b005b6103c560048036038101906103c09190611883565b610a65565b6040516103d291906118de565b60405180910390f35b6103e3610a88565b6040516103f09190611bda565b60405180910390f35b610413600480360381019061040e9190611883565b610b8d565b005b61041d610be7565b60405161042a9190611908565b60405180910390f35b61044d60048036038101906104489190611bfc565b610bf7565b60405161045a9190611908565b60405180910390f35b61047d60048036038101906104789190611d71565b610c7e565b005b61049960048036038101906104949190611a18565b610d05565b005b6060600380546104aa90611dfc565b80601f01602080910402602001604051908101604052809291908181526020018280546104d690611dfc565b80156105235780601f106104f857610100808354040283529160200191610523565b820191906000526020600020905b81548152906001019060200180831161050657829003601f168201915b5050505050905090565b600080610538610d88565b9050610545818585610d90565b600191505092915050565b6000600254905090565b600080610565610d88565b9050610572858285610f59565b61057d858585610fe5565b60019150509392505050565b60006012905090565b60008061059d610d88565b90506105be8185856105af8589610bf7565b6105b99190611e5c565b610d90565b600191505092915050565b6105d161125b565b6105db82826112d9565b5050565b6105f06105ea610d88565b8261142f565b50565b6006818154811061060357600080fd5b906000526020600020906003020160009150905080600001549080600101805461062c90611dfc565b80601f016020809104026020016040519081016040528092919081815260200182805461065890611dfc565b80156106a55780601f1061067a576101008083540402835291602001916106a5565b820191906000526020600020905b81548152906001019060200180831161068857829003601f168201915b5050505050908060020154905083565b6106bf338261142f565b50565b60008060008373ffffffffffffffffffffffffffffffffffffffff1673ffffffffffffffffffffffffffffffffffffffff168152602001908152602001600020549050919050565b61071261125b565b61071c60006115fc565b565b6107308261072a610d88565b83610f59565b61073a828261142f565b5050565b6000600560009054906101000a900473ffffffffffffffffffffffffffffffffffffffff16905090565b60606004805461077790611dfc565b80601f01602080910402602001604051908101604052809291908181526020018280546107a390611dfc565b80156107f05780601f106107c5576101008083540402835291602001916107f0565b820191906000526020600020905b8154815290600101906020018083116107d357829003601f168201915b5050505050905090565b600080610805610d88565b905060006108138286610bf7565b905083811015610858576040517f08c379a000000000000000000000000000000000000000000000000000000000815260040161084f90611f02565b60405180910390fd5b6108658286868403610d90565b60019250505092915050565b6001811015801561088757506006805490508111155b6108c6576040517f08c379a00000000000000000000000000000000000000000000000000000000081526004016108bd90611f6e565b60405180910390fd5b600060066001836108d79190611f8e565b815481106108e8576108e7611fc2565b5b90600052602060002090600302016040518060600160405290816000820154815260200160018201805461091b90611dfc565b80601f016020809104026020016040519081016040528092919081815260200182805461094790611dfc565b80156109945780601f1061096957610100808354040283529160200191610994565b820191906000526020600020905b81548152906001019060200180831161097757829003601f168201915b50505050508152602001600282015481525050905060008160400151905060066001846109c19190611f8e565b815481106109d2576109d1611fc2565b5b90600052602060002090600302016000808201600090556001820160006109f991906116cc565b6002820160009055505080610a0d336106c2565b1015610a4e576040517f08c379a0000000000000000000000000000000000000000000000000000000008152600401610a459061203d565b60405180910390fd5b610a6033610a5a61073e565b83610fe5565b505050565b600080610a70610d88565b9050610a7d818585610fe5565b600191505092915050565b60606006805480602002602001604051908101604052809291908181526020016000905b82821015610b84578382906000526020600020906003020160405180606001604052908160008201548152602001600182018054610ae990611dfc565b80601f0160208091040260200160405190810160405280929190818152602001828054610b1590611dfc565b8015610b625780601f10610b3757610100808354040283529160200191610b62565b820191906000526020600020905b815481529060010190602001808311610b4557829003601f168201915b5050505050815260200160028201548152505081526020019060010190610aac565b50505050905090565b80610b97336106c2565b1015610bd8576040517f08c379a0000000000000000000000000000000000000000000000000000000008152600401610bcf9061203d565b60405180910390fd5b610be3338383610fe5565b5050565b6000610bf2336106c2565b905090565b6000600160008473ffffffffffffffffffffffffffffffffffffffff1673ffffffffffffffffffffffffffffffffffffffff16815260200190815260200160002060008373ffffffffffffffffffffffffffffffffffffffff1673ffffffffffffffffffffffffffffffffffffffff16815260200190815260200160002054905092915050565b600660405180606001604052806001600680549050610c9d9190611e5c565b8152602001848152602001838152509080600181540180825580915050600190039060005260206000209060030201600090919091909150600082015181600001556020820151816001019081610cf49190612209565b506040820151816002015550505050565b610d0d61125b565b600073ffffffffffffffffffffffffffffffffffffffff168173ffffffffffffffffffffffffffffffffffffffff1603610d7c576040517f08c379a0000000000000000000000000000000000000000000000000000000008152600401610d739061234d565b60405180910390fd5b610d85816115fc565b50565b600033905090565b600073ffffffffffffffffffffffffffffffffffffffff168373ffffffffffffffffffffffffffffffffffffffff1603610dff576040517f08c379a0000000000000000000000000000000000000000000000000000000008152600401610df6906123df565b60405180910390fd5b600073ffffffffffffffffffffffffffffffffffffffff168273ffffffffffffffffffffffffffffffffffffffff1603610e6e576040517f08c379a0000000000000000000000000000000000000000000000000000000008152600401610e6590612471565b60405180910390fd5b80600160008573ffffffffffffffffffffffffffffffffffffffff1673ffffffffffffffffffffffffffffffffffffffff16815260200190815260200160002060008473ffffffffffffffffffffffffffffffffffffffff1673ffffffffffffffffffffffffffffffffffffffff168152602001908152602001600020819055508173ffffffffffffffffffffffffffffffffffffffff168373ffffffffffffffffffffffffffffffffffffffff167f8c5be1e5ebec7d5bd14f71427d1e84f3dd0314c0f7b2291e5b200ac8c7c3b92583604051610f4c9190611908565b60405180910390a3505050565b6000610f658484610bf7565b90507fffffffffffffffffffffffffffffffffffffffffffffffffffffffffffffffff8114610fdf5781811015610fd1576040517f08c379a0000000000000000000000000000000000000000000000000000000008152600401610fc8906124dd565b60405180910390fd5b610fde8484848403610d90565b5b50505050565b600073ffffffffffffffffffffffffffffffffffffffff168373ffffffffffffffffffffffffffffffffffffffff1603611054576040517f08c379a000000000000000000000000000000000000000000000000000000000815260040161104b9061256f565b60405180910390fd5b600073ffffffffffffffffffffffffffffffffffffffff168273ffffffffffffffffffffffffffffffffffffffff16036110c3576040517f08c379a00000000000000000000000000000000000000000000000000000000081526004016110ba90612601565b60405180910390fd5b6110ce8383836116c2565b60008060008573ffffffffffffffffffffffffffffffffffffffff1673ffffffffffffffffffffffffffffffffffffffff16815260200190815260200160002054905081811015611154576040517f08c379a000000000000000000000000000000000000000000000000000000000815260040161114b90612693565b60405180910390fd5b8181036000808673ffffffffffffffffffffffffffffffffffffffff1673ffffffffffffffffffffffffffffffffffffffff16815260200190815260200160002081905550816000808573ffffffffffffffffffffffffffffffffffffffff1673ffffffffffffffffffffffffffffffffffffffff168152602001908152602001600020600082825401925050819055508273ffffffffffffffffffffffffffffffffffffffff168473ffffffffffffffffffffffffffffffffffffffff167fddf252ad1be2c89b69c2b068fc378daa952ba7f163c4a11628f55a4df523b3ef846040516112429190611908565b60405180910390a36112558484846116c7565b50505050565b611263610d88565b73ffffffffffffffffffffffffffffffffffffffff1661128161073e565b73ffffffffffffffffffffffffffffffffffffffff16146112d7576040517f08c379a00000000000000000000000000000000000000000000000000000000081526004016112ce906126ff565b60405180910390fd5b565b600073ffffffffffffffffffffffffffffffffffffffff168273ffffffffffffffffffffffffffffffffffffffff1603611348576040517f08c379a000000000000000000000000000000000000000000000000000000000815260040161133f9061276b565b60405180910390fd5b611354600083836116c2565b80600260008282546113669190611e5c565b92505081905550806000808473ffffffffffffffffffffffffffffffffffffffff1673ffffffffffffffffffffffffffffffffffffffff168152602001908152602001600020600082825401925050819055508173ffffffffffffffffffffffffffffffffffffffff16600073ffffffffffffffffffffffffffffffffffffffff167fddf252ad1be2c89b69c2b068fc378daa952ba7f163c4a11628f55a4df523b3ef836040516114179190611908565b60405180910390a361142b600083836116c7565b5050565b600073ffffffffffffffffffffffffffffffffffffffff168273ffffffffffffffffffffffffffffffffffffffff160361149e576040517f08c379a0000000000000000000000000000000000000000000000000000000008152600401611495906127fd565b60405180910390fd5b6114aa826000836116c2565b60008060008473ffffffffffffffffffffffffffffffffffffffff1673ffffffffffffffffffffffffffffffffffffffff16815260200190815260200160002054905081811015611530576040517f08c379a00000000000000000000000000000000000000000000000000000000081526004016115279061288f565b60405180910390fd5b8181036000808573ffffffffffffffffffffffffffffffffffffffff1673ffffffffffffffffffffffffffffffffffffffff1681526020019081526020016000208190555081600260008282540392505081905550600073ffffffffffffffffffffffffffffffffffffffff168373ffffffffffffffffffffffffffffffffffffffff167fddf252ad1be2c89b69c2b068fc378daa952ba7f163c4a11628f55a4df523b3ef846040516115e39190611908565b60405180910390a36115f7836000846116c7565b505050565b6000600560009054906101000a900473ffffffffffffffffffffffffffffffffffffffff16905081600560006101000a81548173ffffffffffffffffffffffffffffffffffffffff021916908373ffffffffffffffffffffffffffffffffffffffff1602179055508173ffffffffffffffffffffffffffffffffffffffff168173ffffffffffffffffffffffffffffffffffffffff167f8be0079c531659141344cd1fd0a4f28419497f9722a3daafe3b4186f6b6457e060405160405180910390a35050565b505050565b505050565b5080546116d890611dfc565b6000825580601f106116ea5750611709565b601f016020900490600052602060002090810190611708919061170c565b5b50565b5b8082111561172557600081600090555060010161170d565b5090565b600081519050919050565b600082825260208201905092915050565b60005b83811015611763578082015181840152602081019050611748565b60008484015250505050565b6000601f19601f8301169050919050565b600061178b82611729565b6117958185611734565b93506117a5818560208601611745565b6117ae8161176f565b840191505092915050565b600060208201905081810360008301526117d38184611780565b905092915050565b6000604051905090565b600080fd5b600080fd5b600073ffffffffffffffffffffffffffffffffffffffff82169050919050565b600061181a826117ef565b9050919050565b61182a8161180f565b811461183557600080fd5b50565b60008135905061184781611821565b92915050565b6000819050919050565b6118608161184d565b811461186b57600080fd5b50565b60008135905061187d81611857565b92915050565b6000806040838503121561189a576118996117e5565b5b60006118a885828601611838565b92505060206118b98582860161186e565b9150509250929050565b60008115159050919050565b6118d8816118c3565b82525050565b60006020820190506118f360008301846118cf565b92915050565b6119028161184d565b82525050565b600060208201905061191d60008301846118f9565b92915050565b60008060006060848603121561193c5761193b6117e5565b5b600061194a86828701611838565b935050602061195b86828701611838565b925050604061196c8682870161186e565b9150509250925092565b600060ff82169050919050565b61198c81611976565b82525050565b60006020820190506119a76000830184611983565b92915050565b6000602082840312156119c3576119c26117e5565b5b60006119d18482850161186e565b91505092915050565b60006060820190506119ef60008301866118f9565b8181036020830152611a018185611780565b9050611a1060408301846118f9565b949350505050565b600060208284031215611a2e57611a2d6117e5565b5b6000611a3c84828501611838565b91505092915050565b611a4e8161180f565b82525050565b6000602082019050611a696000830184611a45565b92915050565b600081519050919050565b600082825260208201905092915050565b6000819050602082019050919050565b611aa48161184d565b82525050565b600082825260208201905092915050565b6000611ac682611729565b611ad08185611aaa565b9350611ae0818560208601611745565b611ae98161176f565b840191505092915050565b6000606083016000830151611b0c6000860182611a9b565b5060208301518482036020860152611b248282611abb565b9150506040830151611b396040860182611a9b565b508091505092915050565b6000611b508383611af4565b905092915050565b6000602082019050919050565b6000611b7082611a6f565b611b7a8185611a7a565b935083602082028501611b8c85611a8b565b8060005b85811015611bc85784840389528151611ba98582611b44565b9450611bb483611b58565b925060208a01995050600181019050611b90565b50829750879550505050505092915050565b60006020820190508181036000830152611bf48184611b65565b905092915050565b60008060408385031215611c1357611c126117e5565b5b6000611c2185828601611838565b9250506020611c3285828601611838565b9150509250929050565b600080fd5b600080fd5b7f4e487b7100000000000000000000000000000000000000000000000000000000600052604160045260246000fd5b611c7e8261176f565b810181811067ffffffffffffffff82111715611c9d57611c9c611c46565b5b80604052505050565b6000611cb06117db565b9050611cbc8282611c75565b919050565b600067ffffffffffffffff821115611cdc57611cdb611c46565b5b611ce58261176f565b9050602081019050919050565b82818337600083830152505050565b6000611d14611d0f84611cc1565b611ca6565b905082815260208101848484011115611d3057611d2f611c41565b5b611d3b848285611cf2565b509392505050565b600082601f830112611d5857611d57611c3c565b5b8135611d68848260208601611d01565b91505092915050565b60008060408385031215611d8857611d876117e5565b5b600083013567ffffffffffffffff811115611da657611da56117ea565b5b611db285828601611d43565b9250506020611dc38582860161186e565b9150509250929050565b7f4e487b7100000000000000000000000000000000000000000000000000000000600052602260045260246000fd5b60006002820490506001821680611e1457607f821691505b602082108103611e2757611e26611dcd565b5b50919050565b7f4e487b7100000000000000000000000000000000000000000000000000000000600052601160045260246000fd5b6000611e678261184d565b9150611e728361184d565b9250828201905080821115611e8a57611e89611e2d565b5b92915050565b7f45524332303a2064656372656173656420616c6c6f77616e63652062656c6f7760008201527f207a65726f000000000000000000000000000000000000000000000000000000602082015250565b6000611eec602583611734565b9150611ef782611e90565b604082019050919050565b60006020820190508181036000830152611f1b81611edf565b9050919050565b7f496e76616c69642073656c656374696f6e000000000000000000000000000000600082015250565b6000611f58601183611734565b9150611f6382611f22565b602082019050919050565b60006020820190508181036000830152611f8781611f4b565b9050919050565b6000611f998261184d565b9150611fa48361184d565b9250828203905081811115611fbc57611fbb611e2d565b5b92915050565b7f4e487b7100000000000000000000000000000000000000000000000000000000600052603260045260246000fd5b7f496e73756666696369656e742062616c616e6365000000000000000000000000600082015250565b6000612027601483611734565b915061203282611ff1565b602082019050919050565b600060208201905081810360008301526120568161201a565b9050919050565b60008190508160005260206000209050919050565b60006020601f8301049050919050565b600082821b905092915050565b6000600883026120bf7fffffffffffffffffffffffffffffffffffffffffffffffffffffffffffffffff82612082565b6120c98683612082565b95508019841693508086168417925050509392505050565b6000819050919050565b60006121066121016120fc8461184d565b6120e1565b61184d565b9050919050565b6000819050919050565b612120836120eb565b61213461212c8261210d565b84845461208f565b825550505050565b600090565b61214961213c565b612154818484612117565b505050565b5b818110156121785761216d600082612141565b60018101905061215a565b5050565b601f8211156121bd5761218e8161205d565b61219784612072565b810160208510156121a6578190505b6121ba6121b285612072565b830182612159565b50505b505050565b600082821c905092915050565b60006121e0600019846008026121c2565b1980831691505092915050565b60006121f983836121cf565b9150826002028217905092915050565b61221282611729565b67ffffffffffffffff81111561222b5761222a611c46565b5b6122358254611dfc565b61224082828561217c565b600060209050601f8311600181146122735760008415612261578287015190505b61226b85826121ed565b8655506122d3565b601f1984166122818661205d565b60005b828110156122a957848901518255600182019150602085019450602081019050612284565b868310156122c657848901516122c2601f8916826121cf565b8355505b6001600288020188555050505b505050505050565b7f4f776e61626c653a206e6577206f776e657220697320746865207a65726f206160008201527f6464726573730000000000000000000000000000000000000000000000000000602082015250565b6000612337602683611734565b9150612342826122db565b604082019050919050565b600060208201905081810360008301526123668161232a565b9050919050565b7f45524332303a20617070726f76652066726f6d20746865207a65726f2061646460008201527f7265737300000000000000000000000000000000000000000000000000000000602082015250565b60006123c9602483611734565b91506123d48261236d565b604082019050919050565b600060208201905081810360008301526123f8816123bc565b9050919050565b7f45524332303a20617070726f766520746f20746865207a65726f20616464726560008201527f7373000000000000000000000000000000000000000000000000000000000000602082015250565b600061245b602283611734565b9150612466826123ff565b604082019050919050565b6000602082019050818103600083015261248a8161244e565b9050919050565b7f45524332303a20696e73756666696369656e7420616c6c6f77616e6365000000600082015250565b60006124c7601d83611734565b91506124d282612491565b602082019050919050565b600060208201905081810360008301526124f6816124ba565b9050919050565b7f45524332303a207472616e736665722066726f6d20746865207a65726f20616460008201527f6472657373000000000000000000000000000000000000000000000000000000602082015250565b6000612559602583611734565b9150612564826124fd565b604082019050919050565b600060208201905081810360008301526125888161254c565b9050919050565b7f45524332303a207472616e7366657220746f20746865207a65726f206164647260008201527f6573730000000000000000000000000000000000000000000000000000000000602082015250565b60006125eb602383611734565b91506125f68261258f565b604082019050919050565b6000602082019050818103600083015261261a816125de565b9050919050565b7f45524332303a207472616e7366657220616d6f756e742065786365656473206260008201527f616c616e63650000000000000000000000000000000000000000000000000000602082015250565b600061267d602683611734565b915061268882612621565b604082019050919050565b600060208201905081810360008301526126ac81612670565b9050919050565b7f4f776e61626c653a2063616c6c6572206973206e6f7420746865206f776e6572600082015250565b60006126e9602083611734565b91506126f4826126b3565b602082019050919050565b60006020820190508181036000830152612718816126dc565b9050919050565b7f45524332303a206d696e7420746f20746865207a65726f206164647265737300600082015250565b6000612755601f83611734565b91506127608261271f565b602082019050919050565b6000602082019050818103600083015261278481612748565b9050919050565b7f45524332303a206275726e2066726f6d20746865207a65726f2061646472657360008201527f7300000000000000000000000000000000000000000000000000000000000000602082015250565b60006127e7602183611734565b91506127f28261278b565b604082019050919050565b60006020820190508181036000830152612816816127da565b9050919050565b7f45524332303a206275726e20616d6f756e7420657863656564732062616c616e60008201527f6365000000000000000000000000000000000000000000000000000000000000602082015250565b6000612879602283611734565b91506128848261281d565b604082019050919050565b600060208201905081810360008301526128a88161286c565b905091905056fea26469706673582212206e3c6640759aedd3cbd202e6fcb202cd687059c1577b19b94ca99bd895eae93464736f6c63430008120033",
  "linkReferences": {},
  "deployedLinkReferences": {}
}